:100000000C9434000C9449000C9449000C94490061
:100010000C9449000C9449000C9449000C9449003C
:100020000C9449000C9449000C9449000C9449002C
:100030000C9449000C9449000C9449000C9449001C
:100040000C9449000C9449000C9449000C9449000C
:100050000C9449000C9449000C9449000C944900FC
:100060000C9449000C94490011241FBECFEFD8E036
:10007000DEBFCDBF11E0A0E0B1E0E6E8F8E002C0ED
:1000800005900D92A430B107D9F70E94D6030C94C5
:1000900041040C9400001092800087E0809381005E
:1000A00008959093C5008093C400E0ECF0E0808157
:1000B00082608083E1ECF0E0808188618083E2EC03
:1000C000F0E08081866080830895E0ECF0E090812C
:1000D00095FFFDCF8093C60008950F931F93CF9394
:1000E000DF931616170654F48C01EC01060F171F48
:1000F00089910E946500C017D107D1F7DF91CF9198
:100100001F910F910895E0ECF0E080818823ECF7D7
:100110008091C60008951092B90088E48093B800D9
:1001200084E08093BC000895CF92DF92EF92FF921B
:100130000F931F93CF93DF9310928500109284004A
:1001400084EA8093BC000F2EFCEBEF2EF12CF02DF7
:1001500004E810E0DD24D394C12CF701C081F8013C
:1001600060817181C095CC1FCC27CC1F80E090E0CE
:100170000E94DB03DD2D20E034E244EF55E40E94D1
:10018000180488230CF4DC2DDC1738F3DF91CF91B1
:100190001F910F91FF90EF90DF90CF900895CF9235
:1001A000DF92EF92FF920F931F93CF93DF93809391
:1001B000BB0084E88093BC001092850010928400FC
:1001C0000F2EFCEBEF2EF12CF02D04E810E0DD24D7
:1001D000D394C12CF701C081F80160817181C09571
:1001E000CC1FCC27CC1F80E090E00E94DB03DD2DEC
:1001F00020E034E244EF55E40E94180488230CF414
:10020000DC2DDC1738F3DF91CF911F910F91FF9018
:10021000EF90DF90CF900895CF92DF92EF92FF9210
:100220000F931F93CF93DF9384EC8093BC001092C5
:100230008500109284000F2EFCEBEF2EF12CF02D98
:1002400004E810E0DD24D394C12CF701C081F8014B
:1002500060817181C095CC1FCC27CC1F80E090E0DD
:100260000E94DB03DD2D20E034E244EF55E40E94E0
:10027000180488230CF4DC2DDC1738F3609184001B
:100280007091850080E090E00E94DB0320E034E282
:1002900044EF55E40E94180488231CF48091BB00AD
:1002A00001C08FEFDF91CF911F910F91FF90EF90E1
:1002B000DF90CF900895CF92DF92EF92FF920F934D
:1002C0001F93CF93DF9384E88093BC001092850046
:1002D000109284000F2EFCEBEF2EF12CF02D04E891
:1002E00010E0DD24D394C12CF701C081F8016081B6
:1002F0007181C095CC1FCC27CC1F80E090E00E947C
:10030000DB03DD2D20E034E244EF55E40E941804C5
:1003100088230CF4DC2DDC1738F360918400709195
:10032000850080E090E00E94DB0320E034E244EFAF
:1003300055E40E94180488231CF48091BB0001C07E
:100340008FEFDF91CF911F910F91FF90EF90DF9092
:10035000CF900895CF93DF93EC010E949400E9EBD6
:10036000F0E080819081887F21E0883009F420E0EE
:10037000222369F0987F81E0903109F480E088239E
:1003800031F084E98093BC008FEF9FEF3CC081E89F
:100390000E94CF00E9EBF0E080819081887F21E02E
:1003A000803409F420E0222369F0987F81E09834BA
:1003B00009F480E0882331F084E98093BC008FEF5A
:1003C0009FEF21C00E940C0188838091B900887F33
:1003D000803531F084E98093BC008FEF9FEF13C02C
:1003E0000E945B0189838091B900887F883531F054
:1003F00084E98093BC008FEF9FEF05C084E9809370
:10040000BC0081E090E0DF91CF910895CF93DF931E
:10041000D82FC62F0E949400E9EBF0E080819081F4
:10042000887F21E0883009F420E0222369F0987F5A
:1004300081E0903109F480E0882331F084E98093F1
:10044000BC008FEF9FEF1BC08C2F0E94CF008091CC
:10045000B900887F883171F48D2F0E94CF00809180
:10046000B900887F883249F484E98093BC0081E038
:1004700090E005C08FEF9FEF02C08FEF9FEFDF91FD
:10048000CF910895833048F4E82FF0E0E050FF4F1B
:1004900060EE80810E94060208958FEF9FEF08951D
:1004A00060E80E9406020895262F30E021503109AD
:1004B0002330310574F0FC013296B901680F791FC1
:1004C00080E090E02191820F911DE617F707D1F7A8
:1004D00002C080E090E0809590950895CF93DF93DF
:1004E000CDB7DEB767970FB6F894DEBF0FBECDBFAE
:1004F000FC018FEF89838A8385E08B8383E18C8382
:100500008EE18D83908181819E838F83928183810F
:100510009C878D87948185819E878F8767E1CE0137
:1005200001960E9454028F8B67E170E0CE01019624
:100530000E946D0067960FB6F894DEBF0FBECDBF68
:10054000DF91CF9108959F92AF92BF92CF92DF92A9
:10055000EF92FF920F931F93CF93DF93CDB7DEB748
:1005600028970FB6F894DEBF0FBECDBF1A8219824E
:100570001C821B821E821D8280E18BB98E010F5F5F
:100580001F4F912C0F2EF3E1AF2EB12CF02D0F2E1B
:10059000F2E1CF2ED12CF02D0F2EF1E1EF2EF12C28
:1005A000F02D35C0F801F182E0822BC08FE99FE089
:1005B0000197F1F700C000008FEF0E9450020197F1
:1005C00021F0F801D182C0821CC08FE99FE0019721
:1005D000F1F700C00000CE0107960E94AA01019722
:1005E00021F0F801B182A0820CC02F8188858F7321
:1005F00090E0F0E42F9F800D911D1124F80191836C
:10060000808393940E5F1F4FF3E09F1631F0892D86
:100610000E944202019751F2C5CFCE0101960E947D
:100620006E021BB828960FB6F894DEBF0FBECDBF82
:10063000DF91CF911F910F91FF90EF90DF90CF90BE
:10064000BF90AF909F900895CF93DF9300D000D0DC
:1006500000D0CDB7DEB78FEF89838A8385E08B83A7
:1006600082E08C831D8266E0CE0101960E945402D6
:100670008E8366E070E0CE0101960E946D002696A2
:100680000FB6F894DEBF0FBECDBFDF91CF910895B6
:10069000FC018481813019F0823021F008950E949C
:1006A000240308950E94A30208958F929F92AF920F
:1006B000BF92CF92DF92EF92FF920F931F93CF934F
:1006C000DF93CDB7DEB769970FB6F894DEBF0FBEE4
:1006D000CDBF0F2EC12CF3E5DF2EF7E0EF2EF12C6E
:1006E000F02DA12CB12C812C912C00EC10E0F80104
:1006F00080818823ACF50E948300E1E0F0E0EC0FFC
:10070000FD1FE80DF91D8083FFEF8F1A9F0A83E01C
:100710008816910471F0E4E08E16910481F0F2E005
:100720008F16910491F48A818F3FD1F0812C912C06
:1007300017C08B818530A1F0812C912C11C0AC8029
:10074000B12C84E0A80EB11C0BC01A141B0444F495
:100750008A149B042CF0CE0101960E94480307C026
:10076000E1E0CE1AD108E108F10809F0C0CF69969E
:100770000FB6F894DEBF0FBECDBFDF91CF911F91B2
:100780000F91FF90EF90DF90CF90BF90AF909F9030
:100790008F9008950E944B0082E290E00E945100E9
:1007A0000E948B0080E00E94420208950E94CA03CA
:1007B0000E945503FDCFE89409C097FB3EF4909545
:1007C0008095709561957F4F8F4F9F4F9923A9F02A
:1007D000F92F96E9BB279395F695879577956795B9
:1007E000B795F111F8CFFAF4BB0F11F460FF1BC0FD
:1007F0006F5F7F4F8F4F9F4F16C0882311F096E990
:1008000011C0772321F09EE8872F762F05C066233D
:1008100071F096E8862F70E060E02AF09A95660FF6
:10082000771F881FDAF7880F9695879597F90895AF
:100830000E941D0408F48FEF0895990F0008550FCA
:10084000AA0BE0E8FEEF16161706E807F907C0F056
:1008500012161306E407F50798F0621B730B840B5E
:10086000950B39F40A2661F0232B242B252B21F438
:1008700008950A2609F4A140A6958FEF811D811DD8
:060880000895F894FFCF7B
:040886000102080063
:00000001FF
